{
  "contractName": "TodoAppLicense",
  "abi": [
    {
      "inputs": [],
      "payable": false,
      "stateMutability": "nonpayable",
      "type": "constructor"
    },
    {
      "anonymous": false,
      "inputs": [
        {
          "indexed": false,
          "internalType": "address",
          "name": "owner",
          "type": "address"
        },
        {
          "indexed": false,
          "internalType": "address",
          "name": "approved",
          "type": "address"
        },
        {
          "indexed": false,
          "internalType": "uint256",
          "name": "tokenId",
          "type": "uint256"
        }
      ],
      "name": "Approval",
      "type": "event"
    },
    {
      "anonymous": false,
      "inputs": [
        {
          "indexed": false,
          "internalType": "address",
          "name": "account",
          "type": "address"
        },
        {
          "indexed": false,
          "internalType": "uint256",
          "name": "tokenId",
          "type": "uint256"
        }
      ],
      "name": "LicenseGiven",
      "type": "event"
    },
    {
      "anonymous": false,
      "inputs": [
        {
          "indexed": false,
          "internalType": "address",
          "name": "from",
          "type": "address"
        },
        {
          "indexed": false,
          "internalType": "address",
          "name": "to",
          "type": "address"
        },
        {
          "indexed": false,
          "internalType": "uint256",
          "name": "tokenId",
          "type": "uint256"
        }
      ],
      "name": "Transfer",
      "type": "event"
    },
    {
      "constant": true,
      "inputs": [
        {
          "internalType": "uint256",
          "name": "",
          "type": "uint256"
        }
      ],
      "name": "tokenIndexToApproved",
      "outputs": [
        {
          "internalType": "address",
          "name": "",
          "type": "address"
        }
      ],
      "payable": false,
      "stateMutability": "view",
      "type": "function"
    },
    {
      "constant": true,
      "inputs": [
        {
          "internalType": "uint256",
          "name": "",
          "type": "uint256"
        }
      ],
      "name": "tokenIndexToOwner",
      "outputs": [
        {
          "internalType": "address",
          "name": "",
          "type": "address"
        }
      ],
      "payable": false,
      "stateMutability": "view",
      "type": "function"
    },
    {
      "constant": false,
      "inputs": [
        {
          "internalType": "address",
          "name": "newOwner",
          "type": "address"
        }
      ],
      "name": "transferOwnership",
      "outputs": [],
      "payable": false,
      "stateMutability": "nonpayable",
      "type": "function"
    },
    {
      "constant": true,
      "inputs": [],
      "name": "totalSupply",
      "outputs": [
        {
          "internalType": "uint256",
          "name": "total",
          "type": "uint256"
        }
      ],
      "payable": false,
      "stateMutability": "view",
      "type": "function"
    },
    {
      "constant": true,
      "inputs": [
        {
          "internalType": "address",
          "name": "_account",
          "type": "address"
        }
      ],
      "name": "balanceOf",
      "outputs": [
        {
          "internalType": "uint256",
          "name": "balance",
          "type": "uint256"
        }
      ],
      "payable": false,
      "stateMutability": "view",
      "type": "function"
    },
    {
      "constant": true,
      "inputs": [
        {
          "internalType": "uint256",
          "name": "_tokenId",
          "type": "uint256"
        }
      ],
      "name": "ownerOf",
      "outputs": [
        {
          "internalType": "address",
          "name": "owner",
          "type": "address"
        }
      ],
      "payable": false,
      "stateMutability": "view",
      "type": "function"
    },
    {
      "constant": false,
      "inputs": [
        {
          "internalType": "address",
          "name": "_from",
          "type": "address"
        },
        {
          "internalType": "address",
          "name": "_to",
          "type": "address"
        },
        {
          "internalType": "uint256",
          "name": "_tokenId",
          "type": "uint256"
        }
      ],
      "name": "transferFrom",
      "outputs": [],
      "payable": false,
      "stateMutability": "nonpayable",
      "type": "function"
    },
    {
      "constant": false,
      "inputs": [
        {
          "internalType": "address",
          "name": "_to",
          "type": "address"
        },
        {
          "internalType": "uint256",
          "name": "_tokenId",
          "type": "uint256"
        }
      ],
      "name": "approve",
      "outputs": [],
      "payable": false,
      "stateMutability": "nonpayable",
      "type": "function"
    },
    {
      "constant": false,
      "inputs": [
        {
          "internalType": "address",
          "name": "_from",
          "type": "address"
        },
        {
          "internalType": "address",
          "name": "_to",
          "type": "address"
        },
        {
          "internalType": "uint256",
          "name": "_tokenId",
          "type": "uint256"
        }
      ],
      "name": "safeTransferFrom",
      "outputs": [],
      "payable": false,
      "stateMutability": "nonpayable",
      "type": "function"
    },
    {
      "constant": false,
      "inputs": [
        {
          "internalType": "address",
          "name": "_from",
          "type": "address"
        },
        {
          "internalType": "address",
          "name": "_to",
          "type": "address"
        },
        {
          "internalType": "uint256",
          "name": "_tokenId",
          "type": "uint256"
        },
        {
          "internalType": "bytes",
          "name": "data",
          "type": "bytes"
        }
      ],
      "name": "safeTransferFrom",
      "outputs": [],
      "payable": false,
      "stateMutability": "nonpayable",
      "type": "function"
    },
    {
      "constant": true,
      "inputs": [
        {
          "internalType": "address",
          "name": "_operator",
          "type": "address"
        },
        {
          "internalType": "bool",
          "name": "_approved",
          "type": "bool"
        }
      ],
      "name": "setApprovalForAll",
      "outputs": [],
      "payable": false,
      "stateMutability": "pure",
      "type": "function"
    },
    {
      "constant": true,
      "inputs": [
        {
          "internalType": "uint256",
          "name": "_tokenId",
          "type": "uint256"
        }
      ],
      "name": "getApproved",
      "outputs": [
        {
          "internalType": "address",
          "name": "",
          "type": "address"
        }
      ],
      "payable": false,
      "stateMutability": "pure",
      "type": "function"
    },
    {
      "constant": true,
      "inputs": [
        {
          "internalType": "address",
          "name": "_owner",
          "type": "address"
        },
        {
          "internalType": "address",
          "name": "_operator",
          "type": "address"
        }
      ],
      "name": "isApprovedForAll",
      "outputs": [
        {
          "internalType": "bool",
          "name": "",
          "type": "bool"
        }
      ],
      "payable": false,
      "stateMutability": "pure",
      "type": "function"
    },
    {
      "constant": false,
      "inputs": [
        {
          "internalType": "address",
          "name": "_account",
          "type": "address"
        },
        {
          "internalType": "uint256",
          "name": "_type",
          "type": "uint256"
        }
      ],
      "name": "giveLicense",
      "outputs": [],
      "payable": false,
      "stateMutability": "nonpayable",
      "type": "function"
    },
    {
      "constant": false,
      "inputs": [
        {
          "internalType": "uint256",
          "name": "_tokenId",
          "type": "uint256"
        },
        {
          "internalType": "string",
          "name": "_deviceId",
          "type": "string"
        }
      ],
      "name": "activate",
      "outputs": [],
      "payable": false,
      "stateMutability": "nonpayable",
      "type": "function"
    },
    {
      "constant": false,
      "inputs": [
        {
          "internalType": "address",
          "name": "_account",
          "type": "address"
        },
        {
          "internalType": "uint256",
          "name": "_tokenId",
          "type": "uint256"
        }
      ],
      "name": "burn",
      "outputs": [],
      "payable": false,
      "stateMutability": "nonpayable",
      "type": "function"
    },
    {
      "constant": true,
      "inputs": [
        {
          "internalType": "address",
          "name": "_account",
          "type": "address"
        },
        {
          "internalType": "uint256",
          "name": "_tokenId",
          "type": "uint256"
        }
      ],
      "name": "isLicenseActive",
      "outputs": [
        {
          "internalType": "uint256",
          "name": "state",
          "type": "uint256"
        }
      ],
      "payable": false,
      "stateMutability": "view",
      "type": "function"
    },
    {
      "constant": false,
      "inputs": [
        {
          "internalType": "address",
          "name": "_account",
          "type": "address"
        },
        {
          "internalType": "uint256",
          "name": "_tokenId",
          "type": "uint256"
        }
      ],
      "name": "handleExpiredLicense",
      "outputs": [],
      "payable": false,
      "stateMutability": "nonpayable",
      "type": "function"
    }
  ],
  "bytecode": "0x608060405234801561001057600080fd5b50336000806101000a81548173ffffffffffffffffffffffffffffffffffffffff021916908373ffffffffffffffffffffffffffffffffffffffff1602179055506119e4806100606000396000f3fe608060405234801561001057600080fd5b50600436106101165760003560e01c80636352211e116100a2578063a8bd9c3211610071578063a8bd9c3214610618578063b88d4fde14610686578063e1721ec81461078b578063e985e9c5146107d9578063f2fde38b1461085557610116565b80636352211e146104b457806370a08231146105225780639dc29fac1461057a578063a22cb465146105c857610116565b806321ea02f9116100e957806321ea02f91461026357806323b872dd146102b157806342842e0e1461031f57806348c20f3d1461038d5780635690d0d9146103ef57610116565b8063081812fc1461011b578063095ea7b31461018957806318160ddd146101d75780631d36e06c146101f5575b600080fd5b6101476004803603602081101561013157600080fd5b8101908080359060200190929190505050610899565b604051808273ffffffffffffffffffffffffffffffffffffffff1673ffffffffffffffffffffffffffffffffffffffff16815260200191505060405180910390f35b6101d56004803603604081101561019f57600080fd5b81019080803573ffffffffffffffffffffffffffffffffffffffff169060200190929190803590602001909291905050506108a3565b005b6101df610a11565b6040518082815260200191505060405180910390f35b6102216004803603602081101561020b57600080fd5b8101908080359060200190929190505050610a1e565b604051808273ffffffffffffffffffffffffffffffffffffffff1673ffffffffffffffffffffffffffffffffffffffff16815260200191505060405180910390f35b6102af6004803603604081101561027957600080fd5b81019080803573ffffffffffffffffffffffffffffffffffffffff16906020019092919080359060200190929190505050610a51565b005b61031d600480360360608110156102c757600080fd5b81019080803573ffffffffffffffffffffffffffffffffffffffff169060200190929190803573ffffffffffffffffffffffffffffffffffffffff16906020019092919080359060200190929190505050610b28565b005b61038b6004803603606081101561033557600080fd5b81019080803573ffffffffffffffffffffffffffffffffffffffff169060200190929190803573ffffffffffffffffffffffffffffffffffffffff16906020019092919080359060200190929190505050610c17565b005b6103d9600480360360408110156103a357600080fd5b81019080803573ffffffffffffffffffffffffffffffffffffffff16906020019092919080359060200190929190505050610c1c565b6040518082815260200191505060405180910390f35b6104b26004803603604081101561040557600080fd5b81019080803590602001909291908035906020019064010000000081111561042c57600080fd5b82018360208201111561043e57600080fd5b8035906020019184600183028401116401000000008311171561046057600080fd5b91908080601f016020809104026020016040519081016040528093929190818152602001838380828437600081840152601f19601f820116905080830192505050505050509192919290505050610e29565b005b6104e0600480360360208110156104ca57600080fd5b8101908080359060200190929190505050610f39565b604051808273ffffffffffffffffffffffffffffffffffffffff1673ffffffffffffffffffffffffffffffffffffffff16815260200191505060405180910390f35b6105646004803603602081101561053857600080fd5b81019080803573ffffffffffffffffffffffffffffffffffffffff169060200190929190505050610fb3565b6040518082815260200191505060405180910390f35b6105c66004803603604081101561059057600080fd5b81019080803573ffffffffffffffffffffffffffffffffffffffff16906020019092919080359060200190929190505050610ffc565b005b610616600480360360408110156105de57600080fd5b81019080803573ffffffffffffffffffffffffffffffffffffffff1690602001909291908035151590602001909291905050506111e6565b005b6106446004803603602081101561062e57600080fd5b81019080803590602001909291905050506111ea565b604051808273ffffffffffffffffffffffffffffffffffffffff1673ffffffffffffffffffffffffffffffffffffffff16815260200191505060405180910390f35b6107896004803603608081101561069c57600080fd5b81019080803573ffffffffffffffffffffffffffffffffffffffff169060200190929190803573ffffffffffffffffffffffffffffffffffffffff169060200190929190803590602001909291908035906020019064010000000081111561070357600080fd5b82018360208201111561071557600080fd5b8035906020019184600183028401116401000000008311171561073757600080fd5b91908080601f016020809104026020016040519081016040528093929190818152602001838380828437600081840152601f19601f82011690508083019250505050505050919291929050505061121d565b005b6107d7600480360360408110156107a157600080fd5b81019080803573ffffffffffffffffffffffffffffffffffffffff16906020019092919080359060200190929190505050611223565b005b61083b600480360360408110156107ef57600080fd5b81019080803573ffffffffffffffffffffffffffffffffffffffff169060200190929190803573ffffffffffffffffffffffffffffffffffffffff169060200190929190505050611355565b604051808215151515815260200191505060405180910390f35b6108976004803603602081101561086b57600080fd5b81019080803573ffffffffffffffffffffffffffffffffffffffff169060200190929190505050611360565b005b6000809050919050565b6108ad33826113fc565b6108b657600080fd5b816004600083815260200190815260200160002060006101000a81548173ffffffffffffffffffffffffffffffffffffffff021916908373ffffffffffffffffffffffffffffffffffffffff1602179055507f8c5be1e5ebec7d5bd14f71427d1e84f3dd0314c0f7b2291e5b200ac8c7c3b9256002600083815260200190815260200160002060009054906101000a900473ffffffffffffffffffffffffffffffffffffffff166004600084815260200190815260200160002060009054906101000a900473ffffffffffffffffffffffffffffffffffffffff1683604051808473ffffffffffffffffffffffffffffffffffffffff1673ffffffffffffffffffffffffffffffffffffffff1681526020018373ffffffffffffffffffffffffffffffffffffffff1673ffffffffffffffffffffffffffffffffffffffff168152602001828152602001935050505060405180910390a15050565b6000600180549050905090565b60026020528060005260406000206000915054906101000a900473ffffffffffffffffffffffffffffffffffffffff1681565b6000809054906101000a900473ffffffffffffffffffffffffffffffffffffffff1673ffffffffffffffffffffffffffffffffffffffff163373ffffffffffffffffffffffffffffffffffffffff1614610aaa57600080fd5b6000610ab68383611468565b90507f438c1191298866ed823d6b9068bc5bdcdea4883fb9ad0584b7c51354efa3c44e8382604051808373ffffffffffffffffffffffffffffffffffffffff1673ffffffffffffffffffffffffffffffffffffffff1681526020018281526020019250505060405180910390a1505050565b6000809054906101000a900473ffffffffffffffffffffffffffffffffffffffff1673ffffffffffffffffffffffffffffffffffffffff163373ffffffffffffffffffffffffffffffffffffffff1614610b8157600080fd5b600073ffffffffffffffffffffffffffffffffffffffff168273ffffffffffffffffffffffffffffffffffffffff161415610bbb57600080fd5b3073ffffffffffffffffffffffffffffffffffffffff168273ffffffffffffffffffffffffffffffffffffffff161415610bf457600080fd5b610bfe83826113fc565b610c0757600080fd5b610c128383836115fd565b505050565b505050565b60008273ffffffffffffffffffffffffffffffffffffffff166002600084815260200190815260200160002060009054906101000a900473ffffffffffffffffffffffffffffffffffffffff1673ffffffffffffffffffffffffffffffffffffffff1614610c8957600080fd5b610c916117fd565b60018381548110610c9e57fe5b90600052602060002090600502016040518060a00160405290816000820160009054906101000a900460ff166001811115610cd557fe5b6001811115610ce057fe5b815260200160018201548152602001600282015481526020016003820160009054906101000a900460ff166002811115610d1657fe5b6002811115610d2157fe5b8152602001600482018054600181600116156101000203166002900480601f016020809104026020016040519081016040528092919081815260200182805460018160011615610100020316600290048015610dbe5780601f10610d9357610100808354040283529160200191610dbe565b820191906000526020600020905b815481529060010190602001808311610da157829003601f168201915b5050505050815250509050428160400151108015610df6575060006002811115610de457fe5b81606001516002811115610df457fe5b145b15610e0f57600280811115610e0757fe5b915050610e23565b80606001516002811115610e1f57fe5b9150505b92915050565b6000809054906101000a900473ffffffffffffffffffffffffffffffffffffffff1673ffffffffffffffffffffffffffffffffffffffff163373ffffffffffffffffffffffffffffffffffffffff1614610e8257600080fd5b600060018381548110610e9157fe5b90600052602060002090600502019050600081600101541415610eb357600080fd5b60016002811115610ec057fe5b8160030160009054906101000a900460ff166002811115610edd57fe5b14610ee757600080fd5b60008160030160006101000a81548160ff02191690836002811115610f0857fe5b021790555062278d004201816002018190555081816004019080519060200190610f33929190611842565b50505050565b60006002600083815260200190815260200160002060009054906101000a900473ffffffffffffffffffffffffffffffffffffffff169050600073ffffffffffffffffffffffffffffffffffffffff168173ffffffffffffffffffffffffffffffffffffffff161415610fab57600080fd5b809050919050565b6000600360008373ffffffffffffffffffffffffffffffffffffffff1673ffffffffffffffffffffffffffffffffffffffff168152602001908152602001600020549050919050565b6000809054906101000a900473ffffffffffffffffffffffffffffffffffffffff1673ffffffffffffffffffffffffffffffffffffffff163373ffffffffffffffffffffffffffffffffffffffff161461105557600080fd5b8173ffffffffffffffffffffffffffffffffffffffff166002600083815260200190815260200160002060009054906101000a900473ffffffffffffffffffffffffffffffffffffffff1673ffffffffffffffffffffffffffffffffffffffff16146110c057600080fd5b600360008373ffffffffffffffffffffffffffffffffffffffff1673ffffffffffffffffffffffffffffffffffffffff16815260200190815260200160002060008154809291906001900391905055506002600082815260200190815260200160002060006101000a81549073ffffffffffffffffffffffffffffffffffffffff02191690556001818154811061115357fe5b9060005260206000209060050201600080820160006101000a81549060ff0219169055600182016000905560028201600090556003820160006101000a81549060ff02191690556004820160006111aa91906118c2565b50506004600082815260200190815260200160002060006101000a81549073ffffffffffffffffffffffffffffffffffffffff02191690555050565b5050565b60046020528060005260406000206000915054906101000a900473ffffffffffffffffffffffffffffffffffffffff1681565b50505050565b6000809054906101000a900473ffffffffffffffffffffffffffffffffffffffff1673ffffffffffffffffffffffffffffffffffffffff163373ffffffffffffffffffffffffffffffffffffffff161461127c57600080fd5b8173ffffffffffffffffffffffffffffffffffffffff166002600083815260200190815260200160002060009054906101000a900473ffffffffffffffffffffffffffffffffffffffff1673ffffffffffffffffffffffffffffffffffffffff16146112e757600080fd5b6000600182815481106112f657fe5b9060005260206000209060050201905042816002015410801561134057506000600281111561132157fe5b8160030160009054906101000a900460ff16600281111561133e57fe5b145b156113505761134f8383610ffc565b5b505050565b600080905092915050565b6000809054906101000a900473ffffffffffffffffffffffffffffffffffffffff1673ffffffffffffffffffffffffffffffffffffffff163373ffffffffffffffffffffffffffffffffffffffff16146113b957600080fd5b806000806101000a81548173ffffffffffffffffffffffffffffffffffffffff021916908373ffffffffffffffffffffffffffffffffffffffff16021790555050565b60008273ffffffffffffffffffffffffffffffffffffffff166002600084815260200190815260200160002060009054906101000a900473ffffffffffffffffffffffffffffffffffffffff1673ffffffffffffffffffffffffffffffffffffffff1614905092915050565b60008060009054906101000a900473ffffffffffffffffffffffffffffffffffffffff1673ffffffffffffffffffffffffffffffffffffffff163373ffffffffffffffffffffffffffffffffffffffff16146114c357600080fd5b6114cb6117fd565b6040518060a001604052808460018111156114e257fe5b60018111156114ed57fe5b8152602001428152602001600081526020016001600281111561150c57fe5b81526020016040518060200160405280600081525081525090506001819080600181540180825580915050906001820390600052602060002090600502016000909192909190915060008201518160000160006101000a81548160ff0219169083600181111561157857fe5b0217905550602082015181600101556040820151816002015560608201518160030160006101000a81548160ff021916908360028111156115b557fe5b021790555060808201518160040190805190602001906115d692919061190a565b505050506000600180805490500390506115f2600086836115fd565b809250505092915050565b600360008373ffffffffffffffffffffffffffffffffffffffff1673ffffffffffffffffffffffffffffffffffffffff16815260200190815260200160002060008154809291906001019190505550816002600083815260200190815260200160002060006101000a81548173ffffffffffffffffffffffffffffffffffffffff021916908373ffffffffffffffffffffffffffffffffffffffff160217905550600073ffffffffffffffffffffffffffffffffffffffff168373ffffffffffffffffffffffffffffffffffffffff161461175957600360008473ffffffffffffffffffffffffffffffffffffffff1673ffffffffffffffffffffffffffffffffffffffff16815260200190815260200160002060008154809291906001900391905055506004600082815260200190815260200160002060006101000a81549073ffffffffffffffffffffffffffffffffffffffff02191690555b7fddf252ad1be2c89b69c2b068fc378daa952ba7f163c4a11628f55a4df523b3ef838383604051808473ffffffffffffffffffffffffffffffffffffffff1673ffffffffffffffffffffffffffffffffffffffff1681526020018373ffffffffffffffffffffffffffffffffffffffff1673ffffffffffffffffffffffffffffffffffffffff168152602001828152602001935050505060405180910390a1505050565b6040518060a001604052806000600181111561181557fe5b815260200160008152602001600081526020016000600281111561183557fe5b8152602001606081525090565b828054600181600116156101000203166002900490600052602060002090601f016020900481019282601f1061188357805160ff19168380011785556118b1565b828001600101855582156118b1579182015b828111156118b0578251825591602001919060010190611895565b5b5090506118be919061198a565b5090565b50805460018160011615610100020316600290046000825580601f106118e85750611907565b601f016020900490600052602060002090810190611906919061198a565b5b50565b828054600181600116156101000203166002900490600052602060002090601f016020900481019282601f1061194b57805160ff1916838001178555611979565b82800160010185558215611979579182015b8281111561197857825182559160200191906001019061195d565b5b509050611986919061198a565b5090565b6119ac91905b808211156119a8576000816000905550600101611990565b5090565b9056fea265627a7a723158201eb2e5e01289d014a7de8168c2cc680ceca3df48a24b419cd7e70a5946b152ea64736f6c63430005100032",
  "source": "// SPDX-License-Identifier: MIT\npragma solidity >=0.4.25 <0.7.0;\n\ncontract owned {\n  address owner;\n\n  constructor() public {\n    owner = msg.sender;\n  }\n\n  modifier onlyOwner {\n    require(msg.sender == owner);\n    _;\n  }\n\n  function transferOwnership(address newOwner) onlyOwner  public {\n    owner = newOwner;\n  }\n}\n\ncontract TodoAppLicense is owned {\n  enum LicenseType {WIN, MAC}\n  enum LicenseState {ACTIVE, INACTIVE, EXPIRED}\n\n  uint constant LICENSE_LIFE_TIME = 30 days;\n\n  struct LicenseInfo {\n    LicenseType licenseType;\n    uint registeredOn;\n    uint expiresOn;\n    LicenseState state;\n    string deviceId;\n  }\n\n  LicenseInfo[] tokens;\n\n  mapping (uint256 => address) public tokenIndexToOwner;\n  mapping (address => uint256) ownershipTokenCount;\n  mapping (uint256 => address) public tokenIndexToApproved;\n\n  event LicenseGiven(address account, uint256 tokenId);\n  event Transfer(address from, address to, uint256 tokenId);\n  event Approval(address owner, address approved, uint256 tokenId);\n\n  constructor() public {\n  }\n\n  // ERC-721 functions\n  function totalSupply() public view returns (uint256 total) {\n    return tokens.length;\n  }\n\n  function balanceOf(address _account) public view returns (uint256 balance) {\n    return ownershipTokenCount[_account];\n  }\n\n  function ownerOf(uint256 _tokenId) public view returns (address owner) {\n    owner = tokenIndexToOwner[_tokenId];\n    require(owner != address(0));\n\n    return owner;\n  }\n\n  function transferFrom(address _from, address _to, uint256 _tokenId) onlyOwner public {\n    require(_to != address(0));\n    require(_to != address(this));\n    require(_owns(_from, _tokenId));\n\n    _transfer(_from, _to, _tokenId);\n  }\n\n  function approve(address _to, uint256 _tokenId) public {\n    require(_owns(msg.sender, _tokenId));\n    tokenIndexToApproved[_tokenId] = _to;\n    emit Approval(tokenIndexToOwner[_tokenId], tokenIndexToApproved[_tokenId], _tokenId);\n  }\n\n  function safeTransferFrom(address _from, address _to, uint256 _tokenId) public {\n    // method is not implemented because it is not needed for licensing logic\n  }\n\n  function safeTransferFrom(address _from, address _to, uint256 _tokenId, bytes memory data) public {\n    // method is not implemented because it is not needed for licensing logic\n  }\n\n  function setApprovalForAll(address _operator, bool _approved) public  pure{\n    // method is not implemented because it is not needed for licensing logic\n  }\n\n  function getApproved(uint256 _tokenId) public pure returns (address) {\n    // method is not implemented because it is not needed for licensing logic\n    return address(0);\n  }\n\n  function isApprovedForAll(address _owner, address _operator) public pure returns (bool) {\n    // method is not implemented because it is not needed for licensing logic\n    return false;\n  }\n\n  // licensing logic\n  function giveLicense(address _account, uint _type) onlyOwner public {\n    uint256 tokenId = _mint(_account, _type);\n    emit LicenseGiven(_account, tokenId);\n  }\n  \n  function activate(uint _tokenId, string memory _deviceId) onlyOwner public {\n    LicenseInfo storage token = tokens[_tokenId];\n    require(token.registeredOn != 0);\n    require(token.state == LicenseState.INACTIVE);\n  \n    token.state = LicenseState.ACTIVE;\n    token.expiresOn = block.timestamp + LICENSE_LIFE_TIME;\n    token.deviceId = _deviceId;\n  }\n\n  function burn(address _account, uint _tokenId) onlyOwner public {\n    require(tokenIndexToOwner[_tokenId] == _account);\n  \n    ownershipTokenCount[_account]--;\n    delete tokenIndexToOwner[_tokenId];\n    delete tokens[_tokenId];\n    delete tokenIndexToApproved[_tokenId];\n  }\n\n  function isLicenseActive(address _account, uint256 _tokenId) public view returns (uint state){\n    require(tokenIndexToOwner[_tokenId] == _account);\n  \n    LicenseInfo memory token = tokens[_tokenId];\n    if (token.expiresOn < block.timestamp && token.state == LicenseState.ACTIVE) {\n      return uint(LicenseState.EXPIRED);\n    }\n  \n    return uint(token.state);\n  }\n  \n  function handleExpiredLicense(address _account, uint256 _tokenId) onlyOwner public {\n    require(tokenIndexToOwner[_tokenId] == _account);\n  \n    LicenseInfo storage token = tokens[_tokenId];\n    if (token.expiresOn < block.timestamp && token.state == LicenseState.ACTIVE) {\n      burn(_account, _tokenId);\n    }\n  }\n  \n  // internal methods\n  function _owns(address _claimant, uint256 _tokenId) internal view returns (bool) {\n    return tokenIndexToOwner[_tokenId] == _claimant;\n  }\n  \n  function _mint(address _account, uint _type) onlyOwner internal returns (uint256 tokenId) {\n    // create new token\n    LicenseInfo memory token = LicenseInfo({\n        licenseType: LicenseType(_type),\n        state: LicenseState.INACTIVE,\n        registeredOn: block.timestamp,\n        expiresOn: 0,\n        deviceId: \"\"\n    });\n    tokens.push(token);\n    uint id= tokens.length - 1;\n    _transfer(address(0), _account, id);\n    return id;\n  }\n  \n  function _transfer(address _from, address _to, uint256 _tokenId) internal {\n  ownershipTokenCount[_to]++;\n  tokenIndexToOwner[_tokenId] = _to;\n  \n  if (_from != address(0)) {\n    ownershipTokenCount[_from]--;\n    delete tokenIndexToApproved[_tokenId];\n  }\n  emit Transfer(_from, _to, _tokenId);\n  }\n}\n",
  "sourcePath": "/Users/inmac/Documents/blockchain/application-licensing-smart-contract/contracts/TodoAppLicense.sol",
  "compiler": {
    "name": "solc",
    "version": "0.5.16+commit.9c3226ce.Emscripten.clang"
  },
  "schemaVersion": "3.4.7",
  "updatedAt": "2022-07-03T08:37:13.522Z",
  "networkType": "ethereum",
  "devdoc": {
    "methods": {}
  },
  "userdoc": {
    "methods": {}
  }
}